{
  "_format": "hh-sol-artifact-1",
  "contractName": "TestMedallionAnyAddressMintA",
  "sourceName": "contracts/TestMedallionAnyAddressMintA.sol",
  "abi": [
    {
      "inputs": [],
      "stateMutability": "nonpayable",
      "type": "constructor"
    },
    {
      "anonymous": false,
      "inputs": [
        {
          "indexed": true,
          "internalType": "address",
          "name": "owner",
          "type": "address"
        },
        {
          "indexed": true,
          "internalType": "address",
          "name": "approved",
          "type": "address"
        },
        {
          "indexed": true,
          "internalType": "uint256",
          "name": "tokenId",
          "type": "uint256"
        }
      ],
      "name": "Approval",
      "type": "event"
    },
    {
      "anonymous": false,
      "inputs": [
        {
          "indexed": true,
          "internalType": "address",
          "name": "owner",
          "type": "address"
        },
        {
          "indexed": true,
          "internalType": "address",
          "name": "operator",
          "type": "address"
        },
        {
          "indexed": false,
          "internalType": "bool",
          "name": "approved",
          "type": "bool"
        }
      ],
      "name": "ApprovalForAll",
      "type": "event"
    },
    {
      "anonymous": false,
      "inputs": [
        {
          "indexed": true,
          "internalType": "address",
          "name": "previousOwner",
          "type": "address"
        },
        {
          "indexed": true,
          "internalType": "address",
          "name": "newOwner",
          "type": "address"
        }
      ],
      "name": "OwnershipTransferred",
      "type": "event"
    },
    {
      "anonymous": false,
      "inputs": [
        {
          "indexed": false,
          "internalType": "address",
          "name": "account",
          "type": "address"
        }
      ],
      "name": "Paused",
      "type": "event"
    },
    {
      "anonymous": false,
      "inputs": [
        {
          "indexed": true,
          "internalType": "address",
          "name": "from",
          "type": "address"
        },
        {
          "indexed": true,
          "internalType": "address",
          "name": "to",
          "type": "address"
        },
        {
          "indexed": true,
          "internalType": "uint256",
          "name": "tokenId",
          "type": "uint256"
        }
      ],
      "name": "Transfer",
      "type": "event"
    },
    {
      "anonymous": false,
      "inputs": [
        {
          "indexed": false,
          "internalType": "address",
          "name": "account",
          "type": "address"
        }
      ],
      "name": "Unpaused",
      "type": "event"
    },
    {
      "stateMutability": "nonpayable",
      "type": "fallback"
    },
    {
      "inputs": [
        {
          "internalType": "address",
          "name": "to",
          "type": "address"
        },
        {
          "internalType": "uint256",
          "name": "tokenId",
          "type": "uint256"
        }
      ],
      "name": "approve",
      "outputs": [],
      "stateMutability": "nonpayable",
      "type": "function"
    },
    {
      "inputs": [
        {
          "internalType": "address",
          "name": "owner",
          "type": "address"
        }
      ],
      "name": "balanceOf",
      "outputs": [
        {
          "internalType": "uint256",
          "name": "",
          "type": "uint256"
        }
      ],
      "stateMutability": "view",
      "type": "function"
    },
    {
      "inputs": [],
      "name": "baseExtension",
      "outputs": [
        {
          "internalType": "string",
          "name": "",
          "type": "string"
        }
      ],
      "stateMutability": "view",
      "type": "function"
    },
    {
      "inputs": [],
      "name": "baseURI",
      "outputs": [
        {
          "internalType": "string",
          "name": "",
          "type": "string"
        }
      ],
      "stateMutability": "view",
      "type": "function"
    },
    {
      "inputs": [],
      "name": "cost",
      "outputs": [
        {
          "internalType": "uint256",
          "name": "",
          "type": "uint256"
        }
      ],
      "stateMutability": "view",
      "type": "function"
    },
    {
      "inputs": [
        {
          "internalType": "uint256",
          "name": "tokenId",
          "type": "uint256"
        }
      ],
      "name": "getApproved",
      "outputs": [
        {
          "internalType": "address",
          "name": "",
          "type": "address"
        }
      ],
      "stateMutability": "view",
      "type": "function"
    },
    {
      "inputs": [
        {
          "internalType": "address",
          "name": "owner",
          "type": "address"
        },
        {
          "internalType": "address",
          "name": "operator",
          "type": "address"
        }
      ],
      "name": "isApprovedForAll",
      "outputs": [
        {
          "internalType": "bool",
          "name": "",
          "type": "bool"
        }
      ],
      "stateMutability": "view",
      "type": "function"
    },
    {
      "inputs": [],
      "name": "maxSupply",
      "outputs": [
        {
          "internalType": "uint256",
          "name": "",
          "type": "uint256"
        }
      ],
      "stateMutability": "view",
      "type": "function"
    },
    {
      "inputs": [
        {
          "internalType": "uint256",
          "name": "_mintAmount",
          "type": "uint256"
        }
      ],
      "name": "mint",
      "outputs": [
        {
          "internalType": "uint256",
          "name": "totalTokens",
          "type": "uint256"
        }
      ],
      "stateMutability": "payable",
      "type": "function"
    },
    {
      "inputs": [],
      "name": "name",
      "outputs": [
        {
          "internalType": "string",
          "name": "",
          "type": "string"
        }
      ],
      "stateMutability": "view",
      "type": "function"
    },
    {
      "inputs": [],
      "name": "owner",
      "outputs": [
        {
          "internalType": "address",
          "name": "",
          "type": "address"
        }
      ],
      "stateMutability": "view",
      "type": "function"
    },
    {
      "inputs": [
        {
          "internalType": "uint256",
          "name": "tokenId",
          "type": "uint256"
        }
      ],
      "name": "ownerOf",
      "outputs": [
        {
          "internalType": "address",
          "name": "",
          "type": "address"
        }
      ],
      "stateMutability": "view",
      "type": "function"
    },
    {
      "inputs": [],
      "name": "pause",
      "outputs": [],
      "stateMutability": "nonpayable",
      "type": "function"
    },
    {
      "inputs": [],
      "name": "paused",
      "outputs": [
        {
          "internalType": "bool",
          "name": "",
          "type": "bool"
        }
      ],
      "stateMutability": "view",
      "type": "function"
    },
    {
      "inputs": [],
      "name": "renounceOwnership",
      "outputs": [],
      "stateMutability": "nonpayable",
      "type": "function"
    },
    {
      "inputs": [
        {
          "internalType": "address",
          "name": "from",
          "type": "address"
        },
        {
          "internalType": "address",
          "name": "to",
          "type": "address"
        },
        {
          "internalType": "uint256",
          "name": "tokenId",
          "type": "uint256"
        }
      ],
      "name": "safeTransferFrom",
      "outputs": [],
      "stateMutability": "nonpayable",
      "type": "function"
    },
    {
      "inputs": [
        {
          "internalType": "address",
          "name": "from",
          "type": "address"
        },
        {
          "internalType": "address",
          "name": "to",
          "type": "address"
        },
        {
          "internalType": "uint256",
          "name": "tokenId",
          "type": "uint256"
        },
        {
          "internalType": "bytes",
          "name": "_data",
          "type": "bytes"
        }
      ],
      "name": "safeTransferFrom",
      "outputs": [],
      "stateMutability": "nonpayable",
      "type": "function"
    },
    {
      "inputs": [
        {
          "internalType": "address",
          "name": "operator",
          "type": "address"
        },
        {
          "internalType": "bool",
          "name": "approved",
          "type": "bool"
        }
      ],
      "name": "setApprovalForAll",
      "outputs": [],
      "stateMutability": "nonpayable",
      "type": "function"
    },
    {
      "inputs": [
        {
          "internalType": "string",
          "name": "_newBaseURI",
          "type": "string"
        }
      ],
      "name": "setBaseURI",
      "outputs": [],
      "stateMutability": "nonpayable",
      "type": "function"
    },
    {
      "inputs": [
        {
          "internalType": "uint256",
          "name": "_newCost",
          "type": "uint256"
        }
      ],
      "name": "setCost",
      "outputs": [],
      "stateMutability": "nonpayable",
      "type": "function"
    },
    {
      "inputs": [
        {
          "internalType": "bytes4",
          "name": "interfaceId",
          "type": "bytes4"
        }
      ],
      "name": "supportsInterface",
      "outputs": [
        {
          "internalType": "bool",
          "name": "",
          "type": "bool"
        }
      ],
      "stateMutability": "view",
      "type": "function"
    },
    {
      "inputs": [],
      "name": "symbol",
      "outputs": [
        {
          "internalType": "string",
          "name": "",
          "type": "string"
        }
      ],
      "stateMutability": "view",
      "type": "function"
    },
    {
      "inputs": [
        {
          "internalType": "uint256",
          "name": "tokenId",
          "type": "uint256"
        }
      ],
      "name": "tokenURI",
      "outputs": [
        {
          "internalType": "string",
          "name": "",
          "type": "string"
        }
      ],
      "stateMutability": "view",
      "type": "function"
    },
    {
      "inputs": [
        {
          "internalType": "address",
          "name": "from",
          "type": "address"
        },
        {
          "internalType": "address",
          "name": "to",
          "type": "address"
        },
        {
          "internalType": "uint256",
          "name": "tokenId",
          "type": "uint256"
        }
      ],
      "name": "transferFrom",
      "outputs": [],
      "stateMutability": "nonpayable",
      "type": "function"
    },
    {
      "inputs": [
        {
          "internalType": "address",
          "name": "newOwner",
          "type": "address"
        }
      ],
      "name": "transferOwnership",
      "outputs": [],
      "stateMutability": "nonpayable",
      "type": "function"
    },
    {
      "inputs": [],
      "name": "unpause",
      "outputs": [],
      "stateMutability": "nonpayable",
      "type": "function"
    },
    {
      "inputs": [],
      "name": "withdraw",
      "outputs": [],
      "stateMutability": "payable",
      "type": "function"
    },
    {
      "stateMutability": "payable",
      "type": "receive"
    }
  ],
  "bytecode": "0x60806040526040518060400160405280600581526020017f2e6a736f6e000000000000000000000000000000000000000000000000000000815250600a9080519060200190620000519291906200031e565b50600a600b5566b1a2bc2ec50000600c553480156200006f57600080fd5b506040518060400160405280601c81526020017f546573744d6564616c6c696f6e416e79416464726573734d696e7441000000008152506040518060400160405280600781526020017f544d4544414d41000000000000000000000000000000000000000000000000008152508160009080519060200190620000f49291906200031e565b5080600190805190602001906200010d9291906200031e565b5050506000600760006101000a81548160ff0219169083151502179055506200014b6200013f6200017b60201b60201c565b6200018360201b60201c565b6200017560405180606001604052806036815260200162004410603691396200024960201b60201c565b620004b6565b600033905090565b6000600760019054906101000a900473ffffffffffffffffffffffffffffffffffffffff16905081600760016101000a81548173ffffffffffffffffffffffffffffffffffffffff021916908373ffffffffffffffffffffffffffffffffffffffff1602179055508173ffffffffffffffffffffffffffffffffffffffff168173ffffffffffffffffffffffffffffffffffffffff167f8be0079c531659141344cd1fd0a4f28419497f9722a3daafe3b4186f6b6457e060405160405180910390a35050565b620002596200017b60201b60201c565b73ffffffffffffffffffffffffffffffffffffffff166200027f620002f460201b60201c565b73ffffffffffffffffffffffffffffffffffffffff1614620002d8576040517f08c379a0000000000000000000000000000000000000000000000000000000008152600401620002cf90620003f5565b60405180910390fd5b8060089080519060200190620002f09291906200031e565b5050565b6000600760019054906101000a900473ffffffffffffffffffffffffffffffffffffffff16905090565b8280546200032c9062000428565b90600052602060002090601f0160209004810192826200035057600085556200039c565b82601f106200036b57805160ff19168380011785556200039c565b828001600101855582156200039c579182015b828111156200039b5782518255916020019190600101906200037e565b5b509050620003ab9190620003af565b5090565b5b80821115620003ca576000816000905550600101620003b0565b5090565b6000620003dd60208362000417565b9150620003ea826200048d565b602082019050919050565b600060208201905081810360008301526200041081620003ce565b9050919050565b600082825260208201905092915050565b600060028204905060018216806200044157607f821691505b602082108114156200045857620004576200045e565b5b50919050565b7f4e487b7100000000000000000000000000000000000000000000000000000000600052602260045260246000fd5b7f4f776e61626c653a2063616c6c6572206973206e6f7420746865206f776e6572600082015250565b613f4a80620004c66000396000f3fe6080604052600436106101a05760003560e01c80636c0360eb116100ec578063a22cb4651161008a578063c87b56dd11610064578063c87b56dd14610575578063d5abeb01146105b2578063e985e9c5146105dd578063f2fde38b1461061a576101a7565b8063a22cb465146104f8578063b88d4fde14610521578063c66828621461054a576101a7565b80638456cb59116100c65780638456cb591461045b5780638da5cb5b1461047257806395d89b411461049d578063a0712d68146104c8576101a7565b80636c0360eb146103dc57806370a0823114610407578063715018a614610444576101a7565b80633ccfd60b1161015957806344a0d68a1161013357806344a0d68a1461032257806355f804b31461034b5780635c975abb146103745780636352211e1461039f576101a7565b80633ccfd60b146102d85780633f4ba83a146102e257806342842e0e146102f9576101a7565b806301ffc9a7146101b657806306fdde03146101f3578063081812fc1461021e578063095ea7b31461025b57806313faede61461028457806323b872dd146102af576101a7565b366101a757005b3480156101b357600080fd5b50005b3480156101c257600080fd5b506101dd60048036038101906101d89190612ab2565b610643565b6040516101ea91906130ec565b60405180910390f35b3480156101ff57600080fd5b50610208610725565b6040516102159190613107565b60405180910390f35b34801561022a57600080fd5b5061024560048036038101906102409190612b45565b6107b7565b6040516102529190613085565b60405180910390f35b34801561026757600080fd5b50610282600480360381019061027d9190612a76565b61083c565b005b34801561029057600080fd5b50610299610954565b6040516102a69190613429565b60405180910390f35b3480156102bb57600080fd5b506102d660048036038101906102d19190612970565b61095a565b005b6102e06109ba565b005b3480156102ee57600080fd5b506102f7610ab6565b005b34801561030557600080fd5b50610320600480360381019061031b9190612970565b610b3c565b005b34801561032e57600080fd5b5061034960048036038101906103449190612b45565b610b5c565b005b34801561035757600080fd5b50610372600480360381019061036d9190612b04565b610be2565b005b34801561038057600080fd5b50610389610c78565b60405161039691906130ec565b60405180910390f35b3480156103ab57600080fd5b506103c660048036038101906103c19190612b45565b610c8f565b6040516103d39190613085565b60405180910390f35b3480156103e857600080fd5b506103f1610d41565b6040516103fe9190613107565b60405180910390f35b34801561041357600080fd5b5061042e6004803603810190610429919061290b565b610dcf565b60405161043b9190613429565b60405180910390f35b34801561045057600080fd5b50610459610e87565b005b34801561046757600080fd5b50610470610f0f565b005b34801561047e57600080fd5b50610487610f95565b6040516104949190613085565b60405180910390f35b3480156104a957600080fd5b506104b2610fbf565b6040516104bf9190613107565b60405180910390f35b6104e260048036038101906104dd9190612b45565b611051565b6040516104ef9190613429565b60405180910390f35b34801561050457600080fd5b5061051f600480360381019061051a9190612a3a565b611296565b005b34801561052d57600080fd5b50610548600480360381019061054391906129bf565b6112ac565b005b34801561055657600080fd5b5061055f61130e565b60405161056c9190613107565b60405180910390f35b34801561058157600080fd5b5061059c60048036038101906105979190612b45565b61139c565b6040516105a99190613107565b60405180910390f35b3480156105be57600080fd5b506105c76113ae565b6040516105d49190613429565b60405180910390f35b3480156105e957600080fd5b5061060460048036038101906105ff9190612934565b6113b4565b60405161061191906130ec565b60405180910390f35b34801561062657600080fd5b50610641600480360381019061063c919061290b565b611448565b005b60007f80ac58cd000000000000000000000000000000000000000000000000000000007bffffffffffffffffffffffffffffffffffffffffffffffffffffffff1916827bffffffffffffffffffffffffffffffffffffffffffffffffffffffff1916148061070e57507f5b5e139f000000000000000000000000000000000000000000000000000000007bffffffffffffffffffffffffffffffffffffffffffffffffffffffff1916827bffffffffffffffffffffffffffffffffffffffffffffffffffffffff1916145b8061071e575061071d82611540565b5b9050919050565b606060008054610734906136f9565b80601f0160208091040260200160405190810160405280929190818152602001828054610760906136f9565b80156107ad5780601f10610782576101008083540402835291602001916107ad565b820191906000526020600020905b81548152906001019060200180831161079057829003601f168201915b5050505050905090565b60006107c2826115aa565b610801576040517f08c379a00000000000000000000000000000000000000000000000000000000081526004016107f890613389565b60405180910390fd5b6004600083815260200190815260200160002060009054906101000a900473ffffffffffffffffffffffffffffffffffffffff169050919050565b600061084782610c8f565b90508073ffffffffffffffffffffffffffffffffffffffff168373ffffffffffffffffffffffffffffffffffffffff1614156108b8576040517f08c379a00000000000000000000000000000000000000000000000000000000081526004016108af906133e9565b60405180910390fd5b8073ffffffffffffffffffffffffffffffffffffffff166108d7611616565b73ffffffffffffffffffffffffffffffffffffffff161480610906575061090581610900611616565b6113b4565b5b610945576040517f08c379a000000000000000000000000000000000000000000000000000000000815260040161093c906132a9565b60405180910390fd5b61094f838361161e565b505050565b600c5481565b61096b610965611616565b826116d7565b6109aa576040517f08c379a00000000000000000000000000000000000000000000000000000000081526004016109a190613409565b60405180910390fd5b6109b58383836117b5565b505050565b6109c2611616565b73ffffffffffffffffffffffffffffffffffffffff166109e0610f95565b73ffffffffffffffffffffffffffffffffffffffff1614610a36576040517f08c379a0000000000000000000000000000000000000000000000000000000008152600401610a2d906133a9565b60405180910390fd5b6000610a40610f95565b73ffffffffffffffffffffffffffffffffffffffff1647604051610a6390613070565b60006040518083038185875af1925050503d8060008114610aa0576040519150601f19603f3d011682016040523d82523d6000602084013e610aa5565b606091505b5050905080610ab357600080fd5b50565b610abe611616565b73ffffffffffffffffffffffffffffffffffffffff16610adc610f95565b73ffffffffffffffffffffffffffffffffffffffff1614610b32576040517f08c379a0000000000000000000000000000000000000000000000000000000008152600401610b29906133a9565b60405180910390fd5b610b3a611a1c565b565b610b57838383604051806020016040528060008152506112ac565b505050565b610b64611616565b73ffffffffffffffffffffffffffffffffffffffff16610b82610f95565b73ffffffffffffffffffffffffffffffffffffffff1614610bd8576040517f08c379a0000000000000000000000000000000000000000000000000000000008152600401610bcf906133a9565b60405180910390fd5b80600c8190555050565b610bea611616565b73ffffffffffffffffffffffffffffffffffffffff16610c08610f95565b73ffffffffffffffffffffffffffffffffffffffff1614610c5e576040517f08c379a0000000000000000000000000000000000000000000000000000000008152600401610c55906133a9565b60405180910390fd5b8060089080519060200190610c7492919061272f565b5050565b6000600760009054906101000a900460ff16905090565b6000806002600084815260200190815260200160002060009054906101000a900473ffffffffffffffffffffffffffffffffffffffff169050600073ffffffffffffffffffffffffffffffffffffffff168173ffffffffffffffffffffffffffffffffffffffff161415610d38576040517f08c379a0000000000000000000000000000000000000000000000000000000008152600401610d2f906132e9565b60405180910390fd5b80915050919050565b60088054610d4e906136f9565b80601f0160208091040260200160405190810160405280929190818152602001828054610d7a906136f9565b8015610dc75780601f10610d9c57610100808354040283529160200191610dc7565b820191906000526020600020905b815481529060010190602001808311610daa57829003601f168201915b505050505081565b60008073ffffffffffffffffffffffffffffffffffffffff168273ffffffffffffffffffffffffffffffffffffffff161415610e40576040517f08c379a0000000000000000000000000000000000000000000000000000000008152600401610e37906132c9565b60405180910390fd5b600360008373ffffffffffffffffffffffffffffffffffffffff1673ffffffffffffffffffffffffffffffffffffffff168152602001908152602001600020549050919050565b610e8f611616565b73ffffffffffffffffffffffffffffffffffffffff16610ead610f95565b73ffffffffffffffffffffffffffffffffffffffff1614610f03576040517f08c379a0000000000000000000000000000000000000000000000000000000008152600401610efa906133a9565b60405180910390fd5b610f0d6000611abe565b565b610f17611616565b73ffffffffffffffffffffffffffffffffffffffff16610f35610f95565b73ffffffffffffffffffffffffffffffffffffffff1614610f8b576040517f08c379a0000000000000000000000000000000000000000000000000000000008152600401610f82906133a9565b60405180910390fd5b610f93611b84565b565b6000600760019054906101000a900473ffffffffffffffffffffffffffffffffffffffff16905090565b606060018054610fce906136f9565b80601f0160208091040260200160405190810160405280929190818152602001828054610ffa906136f9565b80156110475780601f1061101c57610100808354040283529160200191611047565b820191906000526020600020905b81548152906001019060200180831161102a57829003601f168201915b5050505050905090565b600061105b610c78565b1561109b576040517f08c379a000000000000000000000000000000000000000000000000000000000815260040161109290613289565b60405180910390fd5b600b546110a86009611c27565b106110e8576040517f08c379a00000000000000000000000000000000000000000000000000000000081526004016110df90613349565b60405180910390fd5b6000821161112b576040517f08c379a000000000000000000000000000000000000000000000000000000000815260040161112290613249565b60405180910390fd5b600b546111386009611c27565b83611143919061352e565b1115611184576040517f08c379a000000000000000000000000000000000000000000000000000000000815260040161117b90613169565b60405180910390fd5b600061118e610f95565b73ffffffffffffffffffffffffffffffffffffffff163373ffffffffffffffffffffffffffffffffffffffff16146112115782600c546111ce91906135b5565b341015611210576040517f08c379a0000000000000000000000000000000000000000000000000000000008152600401611207906131e9565b60405180910390fd5b5b6000600190505b83811161128c576112296009611c35565b6112336009611c27565b915061123f3383611c4b565b600061124a83611c69565b600a60405160200161125d92919061304c565b60405160208183030381529060405290506112788382611e16565b5080806112849061375c565b915050611218565b5080915050919050565b6112a86112a1611616565b8383611e8a565b5050565b6112bd6112b7611616565b836116d7565b6112fc576040517f08c379a00000000000000000000000000000000000000000000000000000000081526004016112f390613409565b60405180910390fd5b61130884848484611ff7565b50505050565b600a805461131b906136f9565b80601f0160208091040260200160405190810160405280929190818152602001828054611347906136f9565b80156113945780601f1061136957610100808354040283529160200191611394565b820191906000526020600020905b81548152906001019060200180831161137757829003601f168201915b505050505081565b60606113a782612053565b9050919050565b600b5481565b6000600560008473ffffffffffffffffffffffffffffffffffffffff1673ffffffffffffffffffffffffffffffffffffffff16815260200190815260200160002060008373ffffffffffffffffffffffffffffffffffffffff1673ffffffffffffffffffffffffffffffffffffffff16815260200190815260200160002060009054906101000a900460ff16905092915050565b611450611616565b73ffffffffffffffffffffffffffffffffffffffff1661146e610f95565b73ffffffffffffffffffffffffffffffffffffffff16146114c4576040517f08c379a00000000000000000000000000000000000000000000000000000000081526004016114bb906133a9565b60405180910390fd5b600073ffffffffffffffffffffffffffffffffffffffff168173ffffffffffffffffffffffffffffffffffffffff161415611534576040517f08c379a000000000000000000000000000000000000000000000000000000000815260040161152b90613189565b60405180910390fd5b61153d81611abe565b50565b60007f01ffc9a7000000000000000000000000000000000000000000000000000000007bffffffffffffffffffffffffffffffffffffffffffffffffffffffff1916827bffffffffffffffffffffffffffffffffffffffffffffffffffffffff1916149050919050565b60008073ffffffffffffffffffffffffffffffffffffffff166002600084815260200190815260200160002060009054906101000a900473ffffffffffffffffffffffffffffffffffffffff1673ffffffffffffffffffffffffffffffffffffffff1614159050919050565b600033905090565b816004600083815260200190815260200160002060006101000a81548173ffffffffffffffffffffffffffffffffffffffff021916908373ffffffffffffffffffffffffffffffffffffffff160217905550808273ffffffffffffffffffffffffffffffffffffffff1661169183610c8f565b73ffffffffffffffffffffffffffffffffffffffff167f8c5be1e5ebec7d5bd14f71427d1e84f3dd0314c0f7b2291e5b200ac8c7c3b92560405160405180910390a45050565b60006116e2826115aa565b611721576040517f08c379a000000000000000000000000000000000000000000000000000000000815260040161171890613269565b60405180910390fd5b600061172c83610c8f565b90508073ffffffffffffffffffffffffffffffffffffffff168473ffffffffffffffffffffffffffffffffffffffff16148061176e575061176d81856113b4565b5b806117ac57508373ffffffffffffffffffffffffffffffffffffffff16611794846107b7565b73ffffffffffffffffffffffffffffffffffffffff16145b91505092915050565b8273ffffffffffffffffffffffffffffffffffffffff166117d582610c8f565b73ffffffffffffffffffffffffffffffffffffffff161461182b576040517f08c379a0000000000000000000000000000000000000000000000000000000008152600401611822906131a9565b60405180910390fd5b600073ffffffffffffffffffffffffffffffffffffffff168273ffffffffffffffffffffffffffffffffffffffff16141561189b576040517f08c379a000000000000000000000000000000000000000000000000000000000815260040161189290613209565b60405180910390fd5b6118a68383836121a5565b6118b160008261161e565b6001600360008573ffffffffffffffffffffffffffffffffffffffff1673ffffffffffffffffffffffffffffffffffffffff1681526020019081526020016000206000828254611901919061360f565b925050819055506001600360008473ffffffffffffffffffffffffffffffffffffffff1673ffffffffffffffffffffffffffffffffffffffff1681526020019081526020016000206000828254611958919061352e565b92505081905550816002600083815260200190815260200160002060006101000a81548173ffffffffffffffffffffffffffffffffffffffff021916908373ffffffffffffffffffffffffffffffffffffffff160217905550808273ffffffffffffffffffffffffffffffffffffffff168473ffffffffffffffffffffffffffffffffffffffff167fddf252ad1be2c89b69c2b068fc378daa952ba7f163c4a11628f55a4df523b3ef60405160405180910390a4611a178383836121fd565b505050565b611a24610c78565b611a63576040517f08c379a0000000000000000000000000000000000000000000000000000000008152600401611a5a90613129565b60405180910390fd5b6000600760006101000a81548160ff0219169083151502179055507f5db9ee0a495bf2e6ff9c91a7834c1ba4fdd244a5e8aa4e537bd38aeae4b073aa611aa7611616565b604051611ab49190613085565b60405180910390a1565b6000600760019054906101000a900473ffffffffffffffffffffffffffffffffffffffff16905081600760016101000a81548173ffffffffffffffffffffffffffffffffffffffff021916908373ffffffffffffffffffffffffffffffffffffffff1602179055508173ffffffffffffffffffffffffffffffffffffffff168173ffffffffffffffffffffffffffffffffffffffff167f8be0079c531659141344cd1fd0a4f28419497f9722a3daafe3b4186f6b6457e060405160405180910390a35050565b611b8c610c78565b15611bcc576040517f08c379a0000000000000000000000000000000000000000000000000000000008152600401611bc390613289565b60405180910390fd5b6001600760006101000a81548160ff0219169083151502179055507f62e78cea01bee320cd4e420270b5ea74000d11b0c9f74754ebdbfc544b05a258611c10611616565b604051611c1d9190613085565b60405180910390a1565b600081600001549050919050565b6001816000016000828254019250508190555050565b611c65828260405180602001604052806000815250612202565b5050565b60606000821415611cb1576040518060400160405280600181526020017f30000000000000000000000000000000000000000000000000000000000000008152509050611e11565b600082905060005b60008214611ce3578080611ccc9061375c565b915050600a82611cdc9190613584565b9150611cb9565b60008167ffffffffffffffff811115611d25577f4e487b7100000000000000000000000000000000000000000000000000000000600052604160045260246000fd5b6040519080825280601f01601f191660200182016040528015611d575781602001600182028036833780820191505090505b5090505b60008514611e0a57600182611d70919061360f565b9150600a85611d7f91906137a5565b6030611d8b919061352e565b60f81b818381518110611dc7577f4e487b7100000000000000000000000000000000000000000000000000000000600052603260045260246000fd5b60200101907effffffffffffffffffffffffffffffffffffffffffffffffffffffffffffff1916908160001a905350600a85611e039190613584565b9450611d5b565b8093505050505b919050565b611e1f826115aa565b611e5e576040517f08c379a0000000000000000000000000000000000000000000000000000000008152600401611e5590613309565b60405180910390fd5b80600660008481526020019081526020016000209080519060200190611e8592919061272f565b505050565b8173ffffffffffffffffffffffffffffffffffffffff168373ffffffffffffffffffffffffffffffffffffffff161415611ef9576040517f08c379a0000000000000000000000000000000000000000000000000000000008152600401611ef090613229565b60405180910390fd5b80600560008573ffffffffffffffffffffffffffffffffffffffff1673ffffffffffffffffffffffffffffffffffffffff16815260200190815260200160002060008473ffffffffffffffffffffffffffffffffffffffff1673ffffffffffffffffffffffffffffffffffffffff16815260200190815260200160002060006101000a81548160ff0219169083151502179055508173ffffffffffffffffffffffffffffffffffffffff168373ffffffffffffffffffffffffffffffffffffffff167f17307eab39ab6107e8899845ad3d59bd9653f200f220920489ca2b5937696c3183604051611fea91906130ec565b60405180910390a3505050565b6120028484846117b5565b61200e8484848461225d565b61204d576040517f08c379a000000000000000000000000000000000000000000000000000000000815260040161204490613149565b60405180910390fd5b50505050565b606061205e826115aa565b61209d576040517f08c379a000000000000000000000000000000000000000000000000000000000815260040161209490613369565b60405180910390fd5b60006006600084815260200190815260200160002080546120bd906136f9565b80601f01602080910402602001604051908101604052809291908181526020018280546120e9906136f9565b80156121365780601f1061210b57610100808354040283529160200191612136565b820191906000526020600020905b81548152906001019060200180831161211957829003601f168201915b5050505050905060006121476123f4565b905060008151141561215d5781925050506121a0565b60008251111561219257808260405160200161217a929190613028565b604051602081830303815290604052925050506121a0565b61219b84612486565b925050505b919050565b6121ad610c78565b156121ed576040517f08c379a00000000000000000000000000000000000000000000000000000000081526004016121e490613289565b60405180910390fd5b6121f883838361252d565b505050565b505050565b61220c8383612532565b612219600084848461225d565b612258576040517f08c379a000000000000000000000000000000000000000000000000000000000815260040161224f90613149565b60405180910390fd5b505050565b600061227e8473ffffffffffffffffffffffffffffffffffffffff1661270c565b156123e7578373ffffffffffffffffffffffffffffffffffffffff1663150b7a026122a7611616565b8786866040518563ffffffff1660e01b81526004016122c994939291906130a0565b602060405180830381600087803b1580156122e357600080fd5b505af192505050801561231457506040513d601f19601f820116820180604052508101906123119190612adb565b60015b612397573d8060008114612344576040519150601f19603f3d011682016040523d82523d6000602084013e612349565b606091505b5060008151141561238f576040517f08c379a000000000000000000000000000000000000000000000000000000000815260040161238690613149565b60405180910390fd5b805181602001fd5b63150b7a0260e01b7bffffffffffffffffffffffffffffffffffffffffffffffffffffffff1916817bffffffffffffffffffffffffffffffffffffffffffffffffffffffff1916149150506123ec565b600190505b949350505050565b606060088054612403906136f9565b80601f016020809104026020016040519081016040528092919081815260200182805461242f906136f9565b801561247c5780601f106124515761010080835404028352916020019161247c565b820191906000526020600020905b81548152906001019060200180831161245f57829003601f168201915b5050505050905090565b6060612491826115aa565b6124d0576040517f08c379a00000000000000000000000000000000000000000000000000000000081526004016124c7906133c9565b60405180910390fd5b60006124da6123f4565b905060008151116124fa5760405180602001604052806000815250612525565b8061250484611c69565b604051602001612515929190613028565b6040516020818303038152906040525b915050919050565b505050565b600073ffffffffffffffffffffffffffffffffffffffff168273ffffffffffffffffffffffffffffffffffffffff1614156125a2576040517f08c379a000000000000000000000000000000000000000000000000000000000815260040161259990613329565b60405180910390fd5b6125ab816115aa565b156125eb576040517f08c379a00000000000000000000000000000000000000000000000000000000081526004016125e2906131c9565b60405180910390fd5b6125f7600083836121a5565b6001600360008473ffffffffffffffffffffffffffffffffffffffff1673ffffffffffffffffffffffffffffffffffffffff1681526020019081526020016000206000828254612647919061352e565b92505081905550816002600083815260200190815260200160002060006101000a81548173ffffffffffffffffffffffffffffffffffffffff021916908373ffffffffffffffffffffffffffffffffffffffff160217905550808273ffffffffffffffffffffffffffffffffffffffff16600073ffffffffffffffffffffffffffffffffffffffff167fddf252ad1be2c89b69c2b068fc378daa952ba7f163c4a11628f55a4df523b3ef60405160405180910390a4612708600083836121fd565b5050565b6000808273ffffffffffffffffffffffffffffffffffffffff163b119050919050565b82805461273b906136f9565b90600052602060002090601f01602090048101928261275d57600085556127a4565b82601f1061277657805160ff19168380011785556127a4565b828001600101855582156127a4579182015b828111156127a3578251825591602001919060010190612788565b5b5090506127b191906127b5565b5090565b5b808211156127ce5760008160009055506001016127b6565b5090565b60006127e56127e084613469565b613444565b9050828152602081018484840111156127fd57600080fd5b6128088482856136b7565b509392505050565b600061282361281e8461349a565b613444565b90508281526020810184848401111561283b57600080fd5b6128468482856136b7565b509392505050565b60008135905061285d81613eb8565b92915050565b60008135905061287281613ecf565b92915050565b60008135905061288781613ee6565b92915050565b60008151905061289c81613ee6565b92915050565b600082601f8301126128b357600080fd5b81356128c38482602086016127d2565b91505092915050565b600082601f8301126128dd57600080fd5b81356128ed848260208601612810565b91505092915050565b60008135905061290581613efd565b92915050565b60006020828403121561291d57600080fd5b600061292b8482850161284e565b91505092915050565b6000806040838503121561294757600080fd5b60006129558582860161284e565b92505060206129668582860161284e565b9150509250929050565b60008060006060848603121561298557600080fd5b60006129938682870161284e565b93505060206129a48682870161284e565b92505060406129b5868287016128f6565b9150509250925092565b600080600080608085870312156129d557600080fd5b60006129e38782880161284e565b94505060206129f48782880161284e565b9350506040612a05878288016128f6565b925050606085013567ffffffffffffffff811115612a2257600080fd5b612a2e878288016128a2565b91505092959194509250565b60008060408385031215612a4d57600080fd5b6000612a5b8582860161284e565b9250506020612a6c85828601612863565b9150509250929050565b60008060408385031215612a8957600080fd5b6000612a978582860161284e565b9250506020612aa8858286016128f6565b9150509250929050565b600060208284031215612ac457600080fd5b6000612ad284828501612878565b91505092915050565b600060208284031215612aed57600080fd5b6000612afb8482850161288d565b91505092915050565b600060208284031215612b1657600080fd5b600082013567ffffffffffffffff811115612b3057600080fd5b612b3c848285016128cc565b91505092915050565b600060208284031215612b5757600080fd5b6000612b65848285016128f6565b91505092915050565b612b7781613643565b82525050565b612b8681613655565b82525050565b6000612b97826134e0565b612ba181856134f6565b9350612bb18185602086016136c6565b612bba81613892565b840191505092915050565b6000612bd0826134eb565b612bda8185613512565b9350612bea8185602086016136c6565b612bf381613892565b840191505092915050565b6000612c09826134eb565b612c138185613523565b9350612c238185602086016136c6565b80840191505092915050565b60008154612c3c816136f9565b612c468186613523565b94506001821660008114612c615760018114612c7257612ca5565b60ff19831686528186019350612ca5565b612c7b856134cb565b60005b83811015612c9d57815481890152600182019150602081019050612c7e565b838801955050505b50505092915050565b6000612cbb601483613512565b9150612cc6826138a3565b602082019050919050565b6000612cde603283613512565b9150612ce9826138cc565b604082019050919050565b6000612d01601783613512565b9150612d0c8261391b565b602082019050919050565b6000612d24602683613512565b9150612d2f82613944565b604082019050919050565b6000612d47602583613512565b9150612d5282613993565b604082019050919050565b6000612d6a601c83613512565b9150612d75826139e2565b602082019050919050565b6000612d8d601483613512565b9150612d9882613a0b565b602082019050919050565b6000612db0602483613512565b9150612dbb82613a34565b604082019050919050565b6000612dd3601983613512565b9150612dde82613a83565b602082019050919050565b6000612df6601683613512565b9150612e0182613aac565b602082019050919050565b6000612e19602c83613512565b9150612e2482613ad5565b604082019050919050565b6000612e3c601083613512565b9150612e4782613b24565b602082019050919050565b6000612e5f603883613512565b9150612e6a82613b4d565b604082019050919050565b6000612e82602a83613512565b9150612e8d82613b9c565b604082019050919050565b6000612ea5602983613512565b9150612eb082613beb565b604082019050919050565b6000612ec8602e83613512565b9150612ed382613c3a565b604082019050919050565b6000612eeb602083613512565b9150612ef682613c89565b602082019050919050565b6000612f0e602283613512565b9150612f1982613cb2565b604082019050919050565b6000612f31603183613512565b9150612f3c82613d01565b604082019050919050565b6000612f54602c83613512565b9150612f5f82613d50565b604082019050919050565b6000612f77602083613512565b9150612f8282613d9f565b602082019050919050565b6000612f9a602f83613512565b9150612fa582613dc8565b604082019050919050565b6000612fbd602183613512565b9150612fc882613e17565b604082019050919050565b6000612fe0600083613507565b9150612feb82613e66565b600082019050919050565b6000613003603183613512565b915061300e82613e69565b604082019050919050565b613022816136ad565b82525050565b60006130348285612bfe565b91506130408284612bfe565b91508190509392505050565b60006130588285612bfe565b91506130648284612c2f565b91508190509392505050565b600061307b82612fd3565b9150819050919050565b600060208201905061309a6000830184612b6e565b92915050565b60006080820190506130b56000830187612b6e565b6130c26020830186612b6e565b6130cf6040830185613019565b81810360608301526130e18184612b8c565b905095945050505050565b60006020820190506131016000830184612b7d565b92915050565b600060208201905081810360008301526131218184612bc5565b905092915050565b6000602082019050818103600083015261314281612cae565b9050919050565b6000602082019050818103600083015261316281612cd1565b9050919050565b6000602082019050818103600083015261318281612cf4565b9050919050565b600060208201905081810360008301526131a281612d17565b9050919050565b600060208201905081810360008301526131c281612d3a565b9050919050565b600060208201905081810360008301526131e281612d5d565b9050919050565b6000602082019050818103600083015261320281612d80565b9050919050565b6000602082019050818103600083015261322281612da3565b9050919050565b6000602082019050818103600083015261324281612dc6565b9050919050565b6000602082019050818103600083015261326281612de9565b9050919050565b6000602082019050818103600083015261328281612e0c565b9050919050565b600060208201905081810360008301526132a281612e2f565b9050919050565b600060208201905081810360008301526132c281612e52565b9050919050565b600060208201905081810360008301526132e281612e75565b9050919050565b6000602082019050818103600083015261330281612e98565b9050919050565b6000602082019050818103600083015261332281612ebb565b9050919050565b6000602082019050818103600083015261334281612ede565b9050919050565b6000602082019050818103600083015261336281612f01565b9050919050565b6000602082019050818103600083015261338281612f24565b9050919050565b600060208201905081810360008301526133a281612f47565b9050919050565b600060208201905081810360008301526133c281612f6a565b9050919050565b600060208201905081810360008301526133e281612f8d565b9050919050565b6000602082019050818103600083015261340281612fb0565b9050919050565b6000602082019050818103600083015261342281612ff6565b9050919050565b600060208201905061343e6000830184613019565b92915050565b600061344e61345f565b905061345a828261372b565b919050565b6000604051905090565b600067ffffffffffffffff82111561348457613483613863565b5b61348d82613892565b9050602081019050919050565b600067ffffffffffffffff8211156134b5576134b4613863565b5b6134be82613892565b9050602081019050919050565b60008190508160005260206000209050919050565b600081519050919050565b600081519050919050565b600082825260208201905092915050565b600081905092915050565b600082825260208201905092915050565b600081905092915050565b6000613539826136ad565b9150613544836136ad565b9250827fffffffffffffffffffffffffffffffffffffffffffffffffffffffffffffffff03821115613579576135786137d6565b5b828201905092915050565b600061358f826136ad565b915061359a836136ad565b9250826135aa576135a9613805565b5b828204905092915050565b60006135c0826136ad565b91506135cb836136ad565b9250817fffffffffffffffffffffffffffffffffffffffffffffffffffffffffffffffff0483118215151615613604576136036137d6565b5b828202905092915050565b600061361a826136ad565b9150613625836136ad565b925082821015613638576136376137d6565b5b828203905092915050565b600061364e8261368d565b9050919050565b60008115159050919050565b60007fffffffff0000000000000000000000000000000000000000000000000000000082169050919050565b600073ffffffffffffffffffffffffffffffffffffffff82169050919050565b6000819050919050565b82818337600083830152505050565b60005b838110156136e45780820151818401526020810190506136c9565b838111156136f3576000848401525b50505050565b6000600282049050600182168061371157607f821691505b6020821081141561372557613724613834565b5b50919050565b61373482613892565b810181811067ffffffffffffffff8211171561375357613752613863565b5b80604052505050565b6000613767826136ad565b91507fffffffffffffffffffffffffffffffffffffffffffffffffffffffffffffffff82141561379a576137996137d6565b5b600182019050919050565b60006137b0826136ad565b91506137bb836136ad565b9250826137cb576137ca613805565b5b828206905092915050565b7f4e487b7100000000000000000000000000000000000000000000000000000000600052601160045260246000fd5b7f4e487b7100000000000000000000000000000000000000000000000000000000600052601260045260246000fd5b7f4e487b7100000000000000000000000000000000000000000000000000000000600052602260045260246000fd5b7f4e487b7100000000000000000000000000000000000000000000000000000000600052604160045260246000fd5b6000601f19601f8301169050919050565b7f5061757361626c653a206e6f7420706175736564000000000000000000000000600082015250565b7f4552433732313a207472616e7366657220746f206e6f6e20455243373231526560008201527f63656976657220696d706c656d656e7465720000000000000000000000000000602082015250565b7f6d696e74416d6f756e7420697320746f6f206c61726765000000000000000000600082015250565b7f4f776e61626c653a206e6577206f776e657220697320746865207a65726f206160008201527f6464726573730000000000000000000000000000000000000000000000000000602082015250565b7f4552433732313a207472616e736665722066726f6d20696e636f72726563742060008201527f6f776e6572000000000000000000000000000000000000000000000000000000602082015250565b7f4552433732313a20746f6b656e20616c7265616479206d696e74656400000000600082015250565b7f4d696e74696e6720636f7374206e6f74206d6574000000000000000000000000600082015250565b7f4552433732313a207472616e7366657220746f20746865207a65726f2061646460008201527f7265737300000000000000000000000000000000000000000000000000000000602082015250565b7f4552433732313a20617070726f766520746f2063616c6c657200000000000000600082015250565b7f6d696e74416d6f756e74206d757374206265203e203000000000000000000000600082015250565b7f4552433732313a206f70657261746f7220717565727920666f72206e6f6e657860008201527f697374656e7420746f6b656e0000000000000000000000000000000000000000602082015250565b7f5061757361626c653a2070617573656400000000000000000000000000000000600082015250565b7f4552433732313a20617070726f76652063616c6c6572206973206e6f74206f7760008201527f6e6572206e6f7220617070726f76656420666f7220616c6c0000000000000000602082015250565b7f4552433732313a2062616c616e636520717565727920666f7220746865207a6560008201527f726f206164647265737300000000000000000000000000000000000000000000602082015250565b7f4552433732313a206f776e657220717565727920666f72206e6f6e657869737460008201527f656e7420746f6b656e0000000000000000000000000000000000000000000000602082015250565b7f45524337323155524953746f726167653a2055524920736574206f66206e6f6e60008201527f6578697374656e7420746f6b656e000000000000000000000000000000000000602082015250565b7f4552433732313a206d696e7420746f20746865207a65726f2061646472657373600082015250565b7f4c696d69746564206d696e74696e6720686173206265656e20636f6d706c657460008201527f6564000000000000000000000000000000000000000000000000000000000000602082015250565b7f45524337323155524953746f726167653a2055524920717565727920666f722060008201527f6e6f6e6578697374656e7420746f6b656e000000000000000000000000000000602082015250565b7f4552433732313a20617070726f76656420717565727920666f72206e6f6e657860008201527f697374656e7420746f6b656e0000000000000000000000000000000000000000602082015250565b7f4f776e61626c653a2063616c6c6572206973206e6f7420746865206f776e6572600082015250565b7f4552433732314d657461646174613a2055524920717565727920666f72206e6f60008201527f6e6578697374656e7420746f6b656e0000000000000000000000000000000000602082015250565b7f4552433732313a20617070726f76616c20746f2063757272656e74206f776e6560008201527f7200000000000000000000000000000000000000000000000000000000000000602082015250565b50565b7f4552433732313a207472616e736665722063616c6c6572206973206e6f74206f60008201527f776e6572206e6f7220617070726f766564000000000000000000000000000000602082015250565b613ec181613643565b8114613ecc57600080fd5b50565b613ed881613655565b8114613ee357600080fd5b50565b613eef81613661565b8114613efa57600080fd5b50565b613f06816136ad565b8114613f1157600080fd5b5056fea26469706673582212204fc99d61df259b1e40f9da6ea3997d785940f0f17c88c850322d8e58056433eb64736f6c63430008040033697066733a2f2f516d595a4b706f73646b795344356d75575a6e487a4371634c6d3656584d32554b67367635514c4a617a31325a652f",
  "linkReferences": {},
  "deployedLinkReferences": {}
}