{
  "_format": "hh-sol-artifact-1",
  "contractName": "TestMedallionB",
  "sourceName": "contracts/TestMedallionB.sol",
  "abi": [
    {
      "inputs": [],
      "stateMutability": "nonpayable",
      "type": "constructor"
    },
    {
      "anonymous": false,
      "inputs": [
        {
          "indexed": true,
          "internalType": "address",
          "name": "owner",
          "type": "address"
        },
        {
          "indexed": true,
          "internalType": "address",
          "name": "approved",
          "type": "address"
        },
        {
          "indexed": true,
          "internalType": "uint256",
          "name": "tokenId",
          "type": "uint256"
        }
      ],
      "name": "Approval",
      "type": "event"
    },
    {
      "anonymous": false,
      "inputs": [
        {
          "indexed": true,
          "internalType": "address",
          "name": "owner",
          "type": "address"
        },
        {
          "indexed": true,
          "internalType": "address",
          "name": "operator",
          "type": "address"
        },
        {
          "indexed": false,
          "internalType": "bool",
          "name": "approved",
          "type": "bool"
        }
      ],
      "name": "ApprovalForAll",
      "type": "event"
    },
    {
      "anonymous": false,
      "inputs": [
        {
          "indexed": true,
          "internalType": "address",
          "name": "previousOwner",
          "type": "address"
        },
        {
          "indexed": true,
          "internalType": "address",
          "name": "newOwner",
          "type": "address"
        }
      ],
      "name": "OwnershipTransferred",
      "type": "event"
    },
    {
      "anonymous": false,
      "inputs": [
        {
          "indexed": false,
          "internalType": "address",
          "name": "account",
          "type": "address"
        }
      ],
      "name": "Paused",
      "type": "event"
    },
    {
      "anonymous": false,
      "inputs": [
        {
          "indexed": true,
          "internalType": "address",
          "name": "from",
          "type": "address"
        },
        {
          "indexed": true,
          "internalType": "address",
          "name": "to",
          "type": "address"
        },
        {
          "indexed": true,
          "internalType": "uint256",
          "name": "tokenId",
          "type": "uint256"
        }
      ],
      "name": "Transfer",
      "type": "event"
    },
    {
      "anonymous": false,
      "inputs": [
        {
          "indexed": false,
          "internalType": "address",
          "name": "account",
          "type": "address"
        }
      ],
      "name": "Unpaused",
      "type": "event"
    },
    {
      "inputs": [
        {
          "internalType": "address",
          "name": "to",
          "type": "address"
        },
        {
          "internalType": "uint256",
          "name": "tokenId",
          "type": "uint256"
        }
      ],
      "name": "approve",
      "outputs": [],
      "stateMutability": "nonpayable",
      "type": "function"
    },
    {
      "inputs": [
        {
          "internalType": "address",
          "name": "owner",
          "type": "address"
        }
      ],
      "name": "balanceOf",
      "outputs": [
        {
          "internalType": "uint256",
          "name": "",
          "type": "uint256"
        }
      ],
      "stateMutability": "view",
      "type": "function"
    },
    {
      "inputs": [],
      "name": "baseExtension",
      "outputs": [
        {
          "internalType": "string",
          "name": "",
          "type": "string"
        }
      ],
      "stateMutability": "view",
      "type": "function"
    },
    {
      "inputs": [],
      "name": "baseURI",
      "outputs": [
        {
          "internalType": "string",
          "name": "",
          "type": "string"
        }
      ],
      "stateMutability": "view",
      "type": "function"
    },
    {
      "inputs": [
        {
          "internalType": "uint256",
          "name": "tokenId",
          "type": "uint256"
        }
      ],
      "name": "getApproved",
      "outputs": [
        {
          "internalType": "address",
          "name": "",
          "type": "address"
        }
      ],
      "stateMutability": "view",
      "type": "function"
    },
    {
      "inputs": [
        {
          "internalType": "address",
          "name": "owner",
          "type": "address"
        },
        {
          "internalType": "address",
          "name": "operator",
          "type": "address"
        }
      ],
      "name": "isApprovedForAll",
      "outputs": [
        {
          "internalType": "bool",
          "name": "",
          "type": "bool"
        }
      ],
      "stateMutability": "view",
      "type": "function"
    },
    {
      "inputs": [],
      "name": "maxSupply",
      "outputs": [
        {
          "internalType": "uint256",
          "name": "",
          "type": "uint256"
        }
      ],
      "stateMutability": "view",
      "type": "function"
    },
    {
      "inputs": [
        {
          "internalType": "address",
          "name": "_to",
          "type": "address"
        },
        {
          "internalType": "uint256",
          "name": "_mintAmount",
          "type": "uint256"
        }
      ],
      "name": "mint",
      "outputs": [
        {
          "internalType": "uint256",
          "name": "totalTokens",
          "type": "uint256"
        }
      ],
      "stateMutability": "payable",
      "type": "function"
    },
    {
      "inputs": [],
      "name": "name",
      "outputs": [
        {
          "internalType": "string",
          "name": "",
          "type": "string"
        }
      ],
      "stateMutability": "view",
      "type": "function"
    },
    {
      "inputs": [],
      "name": "owner",
      "outputs": [
        {
          "internalType": "address",
          "name": "",
          "type": "address"
        }
      ],
      "stateMutability": "view",
      "type": "function"
    },
    {
      "inputs": [
        {
          "internalType": "uint256",
          "name": "tokenId",
          "type": "uint256"
        }
      ],
      "name": "ownerOf",
      "outputs": [
        {
          "internalType": "address",
          "name": "",
          "type": "address"
        }
      ],
      "stateMutability": "view",
      "type": "function"
    },
    {
      "inputs": [],
      "name": "pause",
      "outputs": [],
      "stateMutability": "nonpayable",
      "type": "function"
    },
    {
      "inputs": [],
      "name": "paused",
      "outputs": [
        {
          "internalType": "bool",
          "name": "",
          "type": "bool"
        }
      ],
      "stateMutability": "view",
      "type": "function"
    },
    {
      "inputs": [],
      "name": "renounceOwnership",
      "outputs": [],
      "stateMutability": "nonpayable",
      "type": "function"
    },
    {
      "inputs": [
        {
          "internalType": "address",
          "name": "from",
          "type": "address"
        },
        {
          "internalType": "address",
          "name": "to",
          "type": "address"
        },
        {
          "internalType": "uint256",
          "name": "tokenId",
          "type": "uint256"
        }
      ],
      "name": "safeTransferFrom",
      "outputs": [],
      "stateMutability": "nonpayable",
      "type": "function"
    },
    {
      "inputs": [
        {
          "internalType": "address",
          "name": "from",
          "type": "address"
        },
        {
          "internalType": "address",
          "name": "to",
          "type": "address"
        },
        {
          "internalType": "uint256",
          "name": "tokenId",
          "type": "uint256"
        },
        {
          "internalType": "bytes",
          "name": "_data",
          "type": "bytes"
        }
      ],
      "name": "safeTransferFrom",
      "outputs": [],
      "stateMutability": "nonpayable",
      "type": "function"
    },
    {
      "inputs": [
        {
          "internalType": "address",
          "name": "operator",
          "type": "address"
        },
        {
          "internalType": "bool",
          "name": "approved",
          "type": "bool"
        }
      ],
      "name": "setApprovalForAll",
      "outputs": [],
      "stateMutability": "nonpayable",
      "type": "function"
    },
    {
      "inputs": [
        {
          "internalType": "string",
          "name": "_newBaseURI",
          "type": "string"
        }
      ],
      "name": "setBaseURI",
      "outputs": [],
      "stateMutability": "nonpayable",
      "type": "function"
    },
    {
      "inputs": [
        {
          "internalType": "bytes4",
          "name": "interfaceId",
          "type": "bytes4"
        }
      ],
      "name": "supportsInterface",
      "outputs": [
        {
          "internalType": "bool",
          "name": "",
          "type": "bool"
        }
      ],
      "stateMutability": "view",
      "type": "function"
    },
    {
      "inputs": [],
      "name": "symbol",
      "outputs": [
        {
          "internalType": "string",
          "name": "",
          "type": "string"
        }
      ],
      "stateMutability": "view",
      "type": "function"
    },
    {
      "inputs": [
        {
          "internalType": "uint256",
          "name": "tokenId",
          "type": "uint256"
        }
      ],
      "name": "tokenURI",
      "outputs": [
        {
          "internalType": "string",
          "name": "",
          "type": "string"
        }
      ],
      "stateMutability": "view",
      "type": "function"
    },
    {
      "inputs": [
        {
          "internalType": "address",
          "name": "from",
          "type": "address"
        },
        {
          "internalType": "address",
          "name": "to",
          "type": "address"
        },
        {
          "internalType": "uint256",
          "name": "tokenId",
          "type": "uint256"
        }
      ],
      "name": "transferFrom",
      "outputs": [],
      "stateMutability": "nonpayable",
      "type": "function"
    },
    {
      "inputs": [
        {
          "internalType": "address",
          "name": "newOwner",
          "type": "address"
        }
      ],
      "name": "transferOwnership",
      "outputs": [],
      "stateMutability": "nonpayable",
      "type": "function"
    },
    {
      "inputs": [],
      "name": "unpause",
      "outputs": [],
      "stateMutability": "nonpayable",
      "type": "function"
    },
    {
      "inputs": [],
      "name": "withdraw",
      "outputs": [],
      "stateMutability": "payable",
      "type": "function"
    }
  ],
  "bytecode": "0x60806040526040518060400160405280600581526020017f2e6a736f6e000000000000000000000000000000000000000000000000000000815250600a90805190602001906200005192919062000313565b50600a600b553480156200006457600080fd5b506040518060400160405280600e81526020017f546573744d6564616c6c696f6e420000000000000000000000000000000000008152506040518060400160405280600581526020017f544d4544420000000000000000000000000000000000000000000000000000008152508160009080519060200190620000e992919062000313565b5080600190805190602001906200010292919062000313565b5050506000600760006101000a81548160ff02191690831515021790555062000140620001346200017060201b60201c565b6200017860201b60201c565b6200016a60405180606001604052806036815260200162004170603691396200023e60201b60201c565b620004ab565b600033905090565b6000600760019054906101000a900473ffffffffffffffffffffffffffffffffffffffff16905081600760016101000a81548173ffffffffffffffffffffffffffffffffffffffff021916908373ffffffffffffffffffffffffffffffffffffffff1602179055508173ffffffffffffffffffffffffffffffffffffffff168173ffffffffffffffffffffffffffffffffffffffff167f8be0079c531659141344cd1fd0a4f28419497f9722a3daafe3b4186f6b6457e060405160405180910390a35050565b6200024e6200017060201b60201c565b73ffffffffffffffffffffffffffffffffffffffff1662000274620002e960201b60201c565b73ffffffffffffffffffffffffffffffffffffffff1614620002cd576040517f08c379a0000000000000000000000000000000000000000000000000000000008152600401620002c490620003ea565b60405180910390fd5b8060089080519060200190620002e592919062000313565b5050565b6000600760019054906101000a900473ffffffffffffffffffffffffffffffffffffffff16905090565b82805462000321906200041d565b90600052602060002090601f01602090048101928262000345576000855562000391565b82601f106200036057805160ff191683800117855562000391565b8280016001018555821562000391579182015b828111156200039057825182559160200191906001019062000373565b5b509050620003a09190620003a4565b5090565b5b80821115620003bf576000816000905550600101620003a5565b5090565b6000620003d26020836200040c565b9150620003df8262000482565b602082019050919050565b600060208201905081810360008301526200040581620003c3565b9050919050565b600082825260208201905092915050565b600060028204905060018216806200043657607f821691505b602082108114156200044d576200044c62000453565b5b50919050565b7f4e487b7100000000000000000000000000000000000000000000000000000000600052602260045260246000fd5b7f4f776e61626c653a2063616c6c6572206973206e6f7420746865206f776e6572600082015250565b613cb580620004bb6000396000f3fe6080604052600436106101665760003560e01c80636c0360eb116100d1578063a22cb4651161008a578063c87b56dd11610064578063c87b56dd146104d6578063d5abeb0114610513578063e985e9c51461053e578063f2fde38b1461057b57610166565b8063a22cb46514610459578063b88d4fde14610482578063c6682862146104ab57610166565b80636c0360eb1461036d57806370a0823114610398578063715018a6146103d55780638456cb59146103ec5780638da5cb5b1461040357806395d89b411461042e57610166565b80633f4ba83a116101235780633f4ba83a1461026c57806340c10f191461028357806342842e0e146102b357806355f804b3146102dc5780635c975abb146103055780636352211e1461033057610166565b806301ffc9a71461016b57806306fdde03146101a8578063081812fc146101d3578063095ea7b31461021057806323b872dd146102395780633ccfd60b14610262575b600080fd5b34801561017757600080fd5b50610192600480360381019061018d9190612975565b6105a4565b60405161019f9190612f69565b60405180910390f35b3480156101b457600080fd5b506101bd610686565b6040516101ca9190612f84565b60405180910390f35b3480156101df57600080fd5b506101fa60048036038101906101f59190612a08565b610718565b6040516102079190612f02565b60405180910390f35b34801561021c57600080fd5b5061023760048036038101906102329190612939565b61079d565b005b34801561024557600080fd5b50610260600480360381019061025b9190612833565b6108b5565b005b61026a610915565b005b34801561027857600080fd5b50610281610a11565b005b61029d60048036038101906102989190612939565b610a97565b6040516102aa9190613266565b60405180910390f35b3480156102bf57600080fd5b506102da60048036038101906102d59190612833565b610cca565b005b3480156102e857600080fd5b5061030360048036038101906102fe91906129c7565b610cea565b005b34801561031157600080fd5b5061031a610d80565b6040516103279190612f69565b60405180910390f35b34801561033c57600080fd5b5061035760048036038101906103529190612a08565b610d97565b6040516103649190612f02565b60405180910390f35b34801561037957600080fd5b50610382610e49565b60405161038f9190612f84565b60405180910390f35b3480156103a457600080fd5b506103bf60048036038101906103ba91906127ce565b610ed7565b6040516103cc9190613266565b60405180910390f35b3480156103e157600080fd5b506103ea610f8f565b005b3480156103f857600080fd5b50610401611017565b005b34801561040f57600080fd5b5061041861109d565b6040516104259190612f02565b60405180910390f35b34801561043a57600080fd5b506104436110c7565b6040516104509190612f84565b60405180910390f35b34801561046557600080fd5b50610480600480360381019061047b91906128fd565b611159565b005b34801561048e57600080fd5b506104a960048036038101906104a49190612882565b61116f565b005b3480156104b757600080fd5b506104c06111d1565b6040516104cd9190612f84565b60405180910390f35b3480156104e257600080fd5b506104fd60048036038101906104f89190612a08565b61125f565b60405161050a9190612f84565b60405180910390f35b34801561051f57600080fd5b50610528611271565b6040516105359190613266565b60405180910390f35b34801561054a57600080fd5b50610565600480360381019061056091906127f7565b611277565b6040516105729190612f69565b60405180910390f35b34801561058757600080fd5b506105a2600480360381019061059d91906127ce565b61130b565b005b60007f80ac58cd000000000000000000000000000000000000000000000000000000007bffffffffffffffffffffffffffffffffffffffffffffffffffffffff1916827bffffffffffffffffffffffffffffffffffffffffffffffffffffffff1916148061066f57507f5b5e139f000000000000000000000000000000000000000000000000000000007bffffffffffffffffffffffffffffffffffffffffffffffffffffffff1916827bffffffffffffffffffffffffffffffffffffffffffffffffffffffff1916145b8061067f575061067e82611403565b5b9050919050565b606060008054610695906134dc565b80601f01602080910402602001604051908101604052809291908181526020018280546106c1906134dc565b801561070e5780601f106106e35761010080835404028352916020019161070e565b820191906000526020600020905b8154815290600101906020018083116106f157829003601f168201915b5050505050905090565b60006107238261146d565b610762576040517f08c379a0000000000000000000000000000000000000000000000000000000008152600401610759906131c6565b60405180910390fd5b6004600083815260200190815260200160002060009054906101000a900473ffffffffffffffffffffffffffffffffffffffff169050919050565b60006107a882610d97565b90508073ffffffffffffffffffffffffffffffffffffffff168373ffffffffffffffffffffffffffffffffffffffff161415610819576040517f08c379a000000000000000000000000000000000000000000000000000000000815260040161081090613226565b60405180910390fd5b8073ffffffffffffffffffffffffffffffffffffffff166108386114d9565b73ffffffffffffffffffffffffffffffffffffffff1614806108675750610866816108616114d9565b611277565b5b6108a6576040517f08c379a000000000000000000000000000000000000000000000000000000000815260040161089d90613106565b60405180910390fd5b6108b083836114e1565b505050565b6108c66108c06114d9565b8261159a565b610905576040517f08c379a00000000000000000000000000000000000000000000000000000000081526004016108fc90613246565b60405180910390fd5b610910838383611678565b505050565b61091d6114d9565b73ffffffffffffffffffffffffffffffffffffffff1661093b61109d565b73ffffffffffffffffffffffffffffffffffffffff1614610991576040517f08c379a0000000000000000000000000000000000000000000000000000000008152600401610988906131e6565b60405180910390fd5b600061099b61109d565b73ffffffffffffffffffffffffffffffffffffffff16476040516109be90612eed565b60006040518083038185875af1925050503d80600081146109fb576040519150601f19603f3d011682016040523d82523d6000602084013e610a00565b606091505b5050905080610a0e57600080fd5b50565b610a196114d9565b73ffffffffffffffffffffffffffffffffffffffff16610a3761109d565b73ffffffffffffffffffffffffffffffffffffffff1614610a8d576040517f08c379a0000000000000000000000000000000000000000000000000000000008152600401610a84906131e6565b60405180910390fd5b610a956118df565b565b6000610aa16114d9565b73ffffffffffffffffffffffffffffffffffffffff16610abf61109d565b73ffffffffffffffffffffffffffffffffffffffff1614610b15576040517f08c379a0000000000000000000000000000000000000000000000000000000008152600401610b0c906131e6565b60405180910390fd5b610b1d610d80565b15610b5d576040517f08c379a0000000000000000000000000000000000000000000000000000000008152600401610b54906130e6565b60405180910390fd5b60008211610ba0576040517f08c379a0000000000000000000000000000000000000000000000000000000008152600401610b97906130a6565b60405180910390fd5b600b54610bad6009611981565b83610bb8919061336b565b1115610bf9576040517f08c379a0000000000000000000000000000000000000000000000000000000008152600401610bf090612fe6565b60405180910390fd5b60008073ffffffffffffffffffffffffffffffffffffffff168473ffffffffffffffffffffffffffffffffffffffff161415610c3e57610c3761109d565b9050610c42565b8390505b600080600190505b848111610cbe57610c5b600961198f565b610c656009611981565b9150610c7183836119a5565b6000610c7c836119c3565b600a604051602001610c8f929190612ec9565b6040516020818303038152906040529050610caa8382611b70565b508080610cb69061353f565b915050610c4a565b50809250505092915050565b610ce58383836040518060200160405280600081525061116f565b505050565b610cf26114d9565b73ffffffffffffffffffffffffffffffffffffffff16610d1061109d565b73ffffffffffffffffffffffffffffffffffffffff1614610d66576040517f08c379a0000000000000000000000000000000000000000000000000000000008152600401610d5d906131e6565b60405180910390fd5b8060089080519060200190610d7c9291906125f2565b5050565b6000600760009054906101000a900460ff16905090565b6000806002600084815260200190815260200160002060009054906101000a900473ffffffffffffffffffffffffffffffffffffffff169050600073ffffffffffffffffffffffffffffffffffffffff168173ffffffffffffffffffffffffffffffffffffffff161415610e40576040517f08c379a0000000000000000000000000000000000000000000000000000000008152600401610e3790613146565b60405180910390fd5b80915050919050565b60088054610e56906134dc565b80601f0160208091040260200160405190810160405280929190818152602001828054610e82906134dc565b8015610ecf5780601f10610ea457610100808354040283529160200191610ecf565b820191906000526020600020905b815481529060010190602001808311610eb257829003601f168201915b505050505081565b60008073ffffffffffffffffffffffffffffffffffffffff168273ffffffffffffffffffffffffffffffffffffffff161415610f48576040517f08c379a0000000000000000000000000000000000000000000000000000000008152600401610f3f90613126565b60405180910390fd5b600360008373ffffffffffffffffffffffffffffffffffffffff1673ffffffffffffffffffffffffffffffffffffffff168152602001908152602001600020549050919050565b610f976114d9565b73ffffffffffffffffffffffffffffffffffffffff16610fb561109d565b73ffffffffffffffffffffffffffffffffffffffff161461100b576040517f08c379a0000000000000000000000000000000000000000000000000000000008152600401611002906131e6565b60405180910390fd5b6110156000611be4565b565b61101f6114d9565b73ffffffffffffffffffffffffffffffffffffffff1661103d61109d565b73ffffffffffffffffffffffffffffffffffffffff1614611093576040517f08c379a000000000000000000000000000000000000000000000000000000000815260040161108a906131e6565b60405180910390fd5b61109b611caa565b565b6000600760019054906101000a900473ffffffffffffffffffffffffffffffffffffffff16905090565b6060600180546110d6906134dc565b80601f0160208091040260200160405190810160405280929190818152602001828054611102906134dc565b801561114f5780601f106111245761010080835404028352916020019161114f565b820191906000526020600020905b81548152906001019060200180831161113257829003601f168201915b5050505050905090565b61116b6111646114d9565b8383611d4d565b5050565b61118061117a6114d9565b8361159a565b6111bf576040517f08c379a00000000000000000000000000000000000000000000000000000000081526004016111b690613246565b60405180910390fd5b6111cb84848484611eba565b50505050565b600a80546111de906134dc565b80601f016020809104026020016040519081016040528092919081815260200182805461120a906134dc565b80156112575780601f1061122c57610100808354040283529160200191611257565b820191906000526020600020905b81548152906001019060200180831161123a57829003601f168201915b505050505081565b606061126a82611f16565b9050919050565b600b5481565b6000600560008473ffffffffffffffffffffffffffffffffffffffff1673ffffffffffffffffffffffffffffffffffffffff16815260200190815260200160002060008373ffffffffffffffffffffffffffffffffffffffff1673ffffffffffffffffffffffffffffffffffffffff16815260200190815260200160002060009054906101000a900460ff16905092915050565b6113136114d9565b73ffffffffffffffffffffffffffffffffffffffff1661133161109d565b73ffffffffffffffffffffffffffffffffffffffff1614611387576040517f08c379a000000000000000000000000000000000000000000000000000000000815260040161137e906131e6565b60405180910390fd5b600073ffffffffffffffffffffffffffffffffffffffff168173ffffffffffffffffffffffffffffffffffffffff1614156113f7576040517f08c379a00000000000000000000000000000000000000000000000000000000081526004016113ee90613006565b60405180910390fd5b61140081611be4565b50565b60007f01ffc9a7000000000000000000000000000000000000000000000000000000007bffffffffffffffffffffffffffffffffffffffffffffffffffffffff1916827bffffffffffffffffffffffffffffffffffffffffffffffffffffffff1916149050919050565b60008073ffffffffffffffffffffffffffffffffffffffff166002600084815260200190815260200160002060009054906101000a900473ffffffffffffffffffffffffffffffffffffffff1673ffffffffffffffffffffffffffffffffffffffff1614159050919050565b600033905090565b816004600083815260200190815260200160002060006101000a81548173ffffffffffffffffffffffffffffffffffffffff021916908373ffffffffffffffffffffffffffffffffffffffff160217905550808273ffffffffffffffffffffffffffffffffffffffff1661155483610d97565b73ffffffffffffffffffffffffffffffffffffffff167f8c5be1e5ebec7d5bd14f71427d1e84f3dd0314c0f7b2291e5b200ac8c7c3b92560405160405180910390a45050565b60006115a58261146d565b6115e4576040517f08c379a00000000000000000000000000000000000000000000000000000000081526004016115db906130c6565b60405180910390fd5b60006115ef83610d97565b90508073ffffffffffffffffffffffffffffffffffffffff168473ffffffffffffffffffffffffffffffffffffffff16148061163157506116308185611277565b5b8061166f57508373ffffffffffffffffffffffffffffffffffffffff1661165784610718565b73ffffffffffffffffffffffffffffffffffffffff16145b91505092915050565b8273ffffffffffffffffffffffffffffffffffffffff1661169882610d97565b73ffffffffffffffffffffffffffffffffffffffff16146116ee576040517f08c379a00000000000000000000000000000000000000000000000000000000081526004016116e590613026565b60405180910390fd5b600073ffffffffffffffffffffffffffffffffffffffff168273ffffffffffffffffffffffffffffffffffffffff16141561175e576040517f08c379a000000000000000000000000000000000000000000000000000000000815260040161175590613066565b60405180910390fd5b611769838383612068565b6117746000826114e1565b6001600360008573ffffffffffffffffffffffffffffffffffffffff1673ffffffffffffffffffffffffffffffffffffffff16815260200190815260200160002060008282546117c491906133f2565b925050819055506001600360008473ffffffffffffffffffffffffffffffffffffffff1673ffffffffffffffffffffffffffffffffffffffff168152602001908152602001600020600082825461181b919061336b565b92505081905550816002600083815260200190815260200160002060006101000a81548173ffffffffffffffffffffffffffffffffffffffff021916908373ffffffffffffffffffffffffffffffffffffffff160217905550808273ffffffffffffffffffffffffffffffffffffffff168473ffffffffffffffffffffffffffffffffffffffff167fddf252ad1be2c89b69c2b068fc378daa952ba7f163c4a11628f55a4df523b3ef60405160405180910390a46118da8383836120c0565b505050565b6118e7610d80565b611926576040517f08c379a000000000000000000000000000000000000000000000000000000000815260040161191d90612fa6565b60405180910390fd5b6000600760006101000a81548160ff0219169083151502179055507f5db9ee0a495bf2e6ff9c91a7834c1ba4fdd244a5e8aa4e537bd38aeae4b073aa61196a6114d9565b6040516119779190612f02565b60405180910390a1565b600081600001549050919050565b6001816000016000828254019250508190555050565b6119bf8282604051806020016040528060008152506120c5565b5050565b60606000821415611a0b576040518060400160405280600181526020017f30000000000000000000000000000000000000000000000000000000000000008152509050611b6b565b600082905060005b60008214611a3d578080611a269061353f565b915050600a82611a3691906133c1565b9150611a13565b60008167ffffffffffffffff811115611a7f577f4e487b7100000000000000000000000000000000000000000000000000000000600052604160045260246000fd5b6040519080825280601f01601f191660200182016040528015611ab15781602001600182028036833780820191505090505b5090505b60008514611b6457600182611aca91906133f2565b9150600a85611ad99190613588565b6030611ae5919061336b565b60f81b818381518110611b21577f4e487b7100000000000000000000000000000000000000000000000000000000600052603260045260246000fd5b60200101907effffffffffffffffffffffffffffffffffffffffffffffffffffffffffffff1916908160001a905350600a85611b5d91906133c1565b9450611ab5565b8093505050505b919050565b611b798261146d565b611bb8576040517f08c379a0000000000000000000000000000000000000000000000000000000008152600401611baf90613166565b60405180910390fd5b80600660008481526020019081526020016000209080519060200190611bdf9291906125f2565b505050565b6000600760019054906101000a900473ffffffffffffffffffffffffffffffffffffffff16905081600760016101000a81548173ffffffffffffffffffffffffffffffffffffffff021916908373ffffffffffffffffffffffffffffffffffffffff1602179055508173ffffffffffffffffffffffffffffffffffffffff168173ffffffffffffffffffffffffffffffffffffffff167f8be0079c531659141344cd1fd0a4f28419497f9722a3daafe3b4186f6b6457e060405160405180910390a35050565b611cb2610d80565b15611cf2576040517f08c379a0000000000000000000000000000000000000000000000000000000008152600401611ce9906130e6565b60405180910390fd5b6001600760006101000a81548160ff0219169083151502179055507f62e78cea01bee320cd4e420270b5ea74000d11b0c9f74754ebdbfc544b05a258611d366114d9565b604051611d439190612f02565b60405180910390a1565b8173ffffffffffffffffffffffffffffffffffffffff168373ffffffffffffffffffffffffffffffffffffffff161415611dbc576040517f08c379a0000000000000000000000000000000000000000000000000000000008152600401611db390613086565b60405180910390fd5b80600560008573ffffffffffffffffffffffffffffffffffffffff1673ffffffffffffffffffffffffffffffffffffffff16815260200190815260200160002060008473ffffffffffffffffffffffffffffffffffffffff1673ffffffffffffffffffffffffffffffffffffffff16815260200190815260200160002060006101000a81548160ff0219169083151502179055508173ffffffffffffffffffffffffffffffffffffffff168373ffffffffffffffffffffffffffffffffffffffff167f17307eab39ab6107e8899845ad3d59bd9653f200f220920489ca2b5937696c3183604051611ead9190612f69565b60405180910390a3505050565b611ec5848484611678565b611ed184848484612120565b611f10576040517f08c379a0000000000000000000000000000000000000000000000000000000008152600401611f0790612fc6565b60405180910390fd5b50505050565b6060611f218261146d565b611f60576040517f08c379a0000000000000000000000000000000000000000000000000000000008152600401611f57906131a6565b60405180910390fd5b6000600660008481526020019081526020016000208054611f80906134dc565b80601f0160208091040260200160405190810160405280929190818152602001828054611fac906134dc565b8015611ff95780601f10611fce57610100808354040283529160200191611ff9565b820191906000526020600020905b815481529060010190602001808311611fdc57829003601f168201915b50505050509050600061200a6122b7565b9050600081511415612020578192505050612063565b60008251111561205557808260405160200161203d929190612ea5565b60405160208183030381529060405292505050612063565b61205e84612349565b925050505b919050565b612070610d80565b156120b0576040517f08c379a00000000000000000000000000000000000000000000000000000000081526004016120a7906130e6565b60405180910390fd5b6120bb8383836123f0565b505050565b505050565b6120cf83836123f5565b6120dc6000848484612120565b61211b576040517f08c379a000000000000000000000000000000000000000000000000000000000815260040161211290612fc6565b60405180910390fd5b505050565b60006121418473ffffffffffffffffffffffffffffffffffffffff166125cf565b156122aa578373ffffffffffffffffffffffffffffffffffffffff1663150b7a0261216a6114d9565b8786866040518563ffffffff1660e01b815260040161218c9493929190612f1d565b602060405180830381600087803b1580156121a657600080fd5b505af19250505080156121d757506040513d601f19601f820116820180604052508101906121d4919061299e565b60015b61225a573d8060008114612207576040519150601f19603f3d011682016040523d82523d6000602084013e61220c565b606091505b50600081511415612252576040517f08c379a000000000000000000000000000000000000000000000000000000000815260040161224990612fc6565b60405180910390fd5b805181602001fd5b63150b7a0260e01b7bffffffffffffffffffffffffffffffffffffffffffffffffffffffff1916817bffffffffffffffffffffffffffffffffffffffffffffffffffffffff1916149150506122af565b600190505b949350505050565b6060600880546122c6906134dc565b80601f01602080910402602001604051908101604052809291908181526020018280546122f2906134dc565b801561233f5780601f106123145761010080835404028352916020019161233f565b820191906000526020600020905b81548152906001019060200180831161232257829003601f168201915b5050505050905090565b60606123548261146d565b612393576040517f08c379a000000000000000000000000000000000000000000000000000000000815260040161238a90613206565b60405180910390fd5b600061239d6122b7565b905060008151116123bd57604051806020016040528060008152506123e8565b806123c7846119c3565b6040516020016123d8929190612ea5565b6040516020818303038152906040525b915050919050565b505050565b600073ffffffffffffffffffffffffffffffffffffffff168273ffffffffffffffffffffffffffffffffffffffff161415612465576040517f08c379a000000000000000000000000000000000000000000000000000000000815260040161245c90613186565b60405180910390fd5b61246e8161146d565b156124ae576040517f08c379a00000000000000000000000000000000000000000000000000000000081526004016124a590613046565b60405180910390fd5b6124ba60008383612068565b6001600360008473ffffffffffffffffffffffffffffffffffffffff1673ffffffffffffffffffffffffffffffffffffffff168152602001908152602001600020600082825461250a919061336b565b92505081905550816002600083815260200190815260200160002060006101000a81548173ffffffffffffffffffffffffffffffffffffffff021916908373ffffffffffffffffffffffffffffffffffffffff160217905550808273ffffffffffffffffffffffffffffffffffffffff16600073ffffffffffffffffffffffffffffffffffffffff167fddf252ad1be2c89b69c2b068fc378daa952ba7f163c4a11628f55a4df523b3ef60405160405180910390a46125cb600083836120c0565b5050565b6000808273ffffffffffffffffffffffffffffffffffffffff163b119050919050565b8280546125fe906134dc565b90600052602060002090601f0160209004810192826126205760008555612667565b82601f1061263957805160ff1916838001178555612667565b82800160010185558215612667579182015b8281111561266657825182559160200191906001019061264b565b5b5090506126749190612678565b5090565b5b80821115612691576000816000905550600101612679565b5090565b60006126a86126a3846132a6565b613281565b9050828152602081018484840111156126c057600080fd5b6126cb84828561349a565b509392505050565b60006126e66126e1846132d7565b613281565b9050828152602081018484840111156126fe57600080fd5b61270984828561349a565b509392505050565b60008135905061272081613c23565b92915050565b60008135905061273581613c3a565b92915050565b60008135905061274a81613c51565b92915050565b60008151905061275f81613c51565b92915050565b600082601f83011261277657600080fd5b8135612786848260208601612695565b91505092915050565b600082601f8301126127a057600080fd5b81356127b08482602086016126d3565b91505092915050565b6000813590506127c881613c68565b92915050565b6000602082840312156127e057600080fd5b60006127ee84828501612711565b91505092915050565b6000806040838503121561280a57600080fd5b600061281885828601612711565b925050602061282985828601612711565b9150509250929050565b60008060006060848603121561284857600080fd5b600061285686828701612711565b935050602061286786828701612711565b9250506040612878868287016127b9565b9150509250925092565b6000806000806080858703121561289857600080fd5b60006128a687828801612711565b94505060206128b787828801612711565b93505060406128c8878288016127b9565b925050606085013567ffffffffffffffff8111156128e557600080fd5b6128f187828801612765565b91505092959194509250565b6000806040838503121561291057600080fd5b600061291e85828601612711565b925050602061292f85828601612726565b9150509250929050565b6000806040838503121561294c57600080fd5b600061295a85828601612711565b925050602061296b858286016127b9565b9150509250929050565b60006020828403121561298757600080fd5b60006129958482850161273b565b91505092915050565b6000602082840312156129b057600080fd5b60006129be84828501612750565b91505092915050565b6000602082840312156129d957600080fd5b600082013567ffffffffffffffff8111156129f357600080fd5b6129ff8482850161278f565b91505092915050565b600060208284031215612a1a57600080fd5b6000612a28848285016127b9565b91505092915050565b612a3a81613426565b82525050565b612a4981613438565b82525050565b6000612a5a8261331d565b612a648185613333565b9350612a748185602086016134a9565b612a7d81613675565b840191505092915050565b6000612a9382613328565b612a9d818561334f565b9350612aad8185602086016134a9565b612ab681613675565b840191505092915050565b6000612acc82613328565b612ad68185613360565b9350612ae68185602086016134a9565b80840191505092915050565b60008154612aff816134dc565b612b098186613360565b94506001821660008114612b245760018114612b3557612b68565b60ff19831686528186019350612b68565b612b3e85613308565b60005b83811015612b6057815481890152600182019150602081019050612b41565b838801955050505b50505092915050565b6000612b7e60148361334f565b9150612b8982613686565b602082019050919050565b6000612ba160328361334f565b9150612bac826136af565b604082019050919050565b6000612bc460178361334f565b9150612bcf826136fe565b602082019050919050565b6000612be760268361334f565b9150612bf282613727565b604082019050919050565b6000612c0a60258361334f565b9150612c1582613776565b604082019050919050565b6000612c2d601c8361334f565b9150612c38826137c5565b602082019050919050565b6000612c5060248361334f565b9150612c5b826137ee565b604082019050919050565b6000612c7360198361334f565b9150612c7e8261383d565b602082019050919050565b6000612c9660168361334f565b9150612ca182613866565b602082019050919050565b6000612cb9602c8361334f565b9150612cc48261388f565b604082019050919050565b6000612cdc60108361334f565b9150612ce7826138de565b602082019050919050565b6000612cff60388361334f565b9150612d0a82613907565b604082019050919050565b6000612d22602a8361334f565b9150612d2d82613956565b604082019050919050565b6000612d4560298361334f565b9150612d50826139a5565b604082019050919050565b6000612d68602e8361334f565b9150612d73826139f4565b604082019050919050565b6000612d8b60208361334f565b9150612d9682613a43565b602082019050919050565b6000612dae60318361334f565b9150612db982613a6c565b604082019050919050565b6000612dd1602c8361334f565b9150612ddc82613abb565b604082019050919050565b6000612df460208361334f565b9150612dff82613b0a565b602082019050919050565b6000612e17602f8361334f565b9150612e2282613b33565b604082019050919050565b6000612e3a60218361334f565b9150612e4582613b82565b604082019050919050565b6000612e5d600083613344565b9150612e6882613bd1565b600082019050919050565b6000612e8060318361334f565b9150612e8b82613bd4565b604082019050919050565b612e9f81613490565b82525050565b6000612eb18285612ac1565b9150612ebd8284612ac1565b91508190509392505050565b6000612ed58285612ac1565b9150612ee18284612af2565b91508190509392505050565b6000612ef882612e50565b9150819050919050565b6000602082019050612f176000830184612a31565b92915050565b6000608082019050612f326000830187612a31565b612f3f6020830186612a31565b612f4c6040830185612e96565b8181036060830152612f5e8184612a4f565b905095945050505050565b6000602082019050612f7e6000830184612a40565b92915050565b60006020820190508181036000830152612f9e8184612a88565b905092915050565b60006020820190508181036000830152612fbf81612b71565b9050919050565b60006020820190508181036000830152612fdf81612b94565b9050919050565b60006020820190508181036000830152612fff81612bb7565b9050919050565b6000602082019050818103600083015261301f81612bda565b9050919050565b6000602082019050818103600083015261303f81612bfd565b9050919050565b6000602082019050818103600083015261305f81612c20565b9050919050565b6000602082019050818103600083015261307f81612c43565b9050919050565b6000602082019050818103600083015261309f81612c66565b9050919050565b600060208201905081810360008301526130bf81612c89565b9050919050565b600060208201905081810360008301526130df81612cac565b9050919050565b600060208201905081810360008301526130ff81612ccf565b9050919050565b6000602082019050818103600083015261311f81612cf2565b9050919050565b6000602082019050818103600083015261313f81612d15565b9050919050565b6000602082019050818103600083015261315f81612d38565b9050919050565b6000602082019050818103600083015261317f81612d5b565b9050919050565b6000602082019050818103600083015261319f81612d7e565b9050919050565b600060208201905081810360008301526131bf81612da1565b9050919050565b600060208201905081810360008301526131df81612dc4565b9050919050565b600060208201905081810360008301526131ff81612de7565b9050919050565b6000602082019050818103600083015261321f81612e0a565b9050919050565b6000602082019050818103600083015261323f81612e2d565b9050919050565b6000602082019050818103600083015261325f81612e73565b9050919050565b600060208201905061327b6000830184612e96565b92915050565b600061328b61329c565b9050613297828261350e565b919050565b6000604051905090565b600067ffffffffffffffff8211156132c1576132c0613646565b5b6132ca82613675565b9050602081019050919050565b600067ffffffffffffffff8211156132f2576132f1613646565b5b6132fb82613675565b9050602081019050919050565b60008190508160005260206000209050919050565b600081519050919050565b600081519050919050565b600082825260208201905092915050565b600081905092915050565b600082825260208201905092915050565b600081905092915050565b600061337682613490565b915061338183613490565b9250827fffffffffffffffffffffffffffffffffffffffffffffffffffffffffffffffff038211156133b6576133b56135b9565b5b828201905092915050565b60006133cc82613490565b91506133d783613490565b9250826133e7576133e66135e8565b5b828204905092915050565b60006133fd82613490565b915061340883613490565b92508282101561341b5761341a6135b9565b5b828203905092915050565b600061343182613470565b9050919050565b60008115159050919050565b60007fffffffff0000000000000000000000000000000000000000000000000000000082169050919050565b600073ffffffffffffffffffffffffffffffffffffffff82169050919050565b6000819050919050565b82818337600083830152505050565b60005b838110156134c75780820151818401526020810190506134ac565b838111156134d6576000848401525b50505050565b600060028204905060018216806134f457607f821691505b6020821081141561350857613507613617565b5b50919050565b61351782613675565b810181811067ffffffffffffffff8211171561353657613535613646565b5b80604052505050565b600061354a82613490565b91507fffffffffffffffffffffffffffffffffffffffffffffffffffffffffffffffff82141561357d5761357c6135b9565b5b600182019050919050565b600061359382613490565b915061359e83613490565b9250826135ae576135ad6135e8565b5b828206905092915050565b7f4e487b7100000000000000000000000000000000000000000000000000000000600052601160045260246000fd5b7f4e487b7100000000000000000000000000000000000000000000000000000000600052601260045260246000fd5b7f4e487b7100000000000000000000000000000000000000000000000000000000600052602260045260246000fd5b7f4e487b7100000000000000000000000000000000000000000000000000000000600052604160045260246000fd5b6000601f19601f8301169050919050565b7f5061757361626c653a206e6f7420706175736564000000000000000000000000600082015250565b7f4552433732313a207472616e7366657220746f206e6f6e20455243373231526560008201527f63656976657220696d706c656d656e7465720000000000000000000000000000602082015250565b7f6d696e74416d6f756e7420697320746f6f206c61726765000000000000000000600082015250565b7f4f776e61626c653a206e6577206f776e657220697320746865207a65726f206160008201527f6464726573730000000000000000000000000000000000000000000000000000602082015250565b7f4552433732313a207472616e736665722066726f6d20696e636f72726563742060008201527f6f776e6572000000000000000000000000000000000000000000000000000000602082015250565b7f4552433732313a20746f6b656e20616c7265616479206d696e74656400000000600082015250565b7f4552433732313a207472616e7366657220746f20746865207a65726f2061646460008201527f7265737300000000000000000000000000000000000000000000000000000000602082015250565b7f4552433732313a20617070726f766520746f2063616c6c657200000000000000600082015250565b7f6d696e74416d6f756e74206d757374206265203e203000000000000000000000600082015250565b7f4552433732313a206f70657261746f7220717565727920666f72206e6f6e657860008201527f697374656e7420746f6b656e0000000000000000000000000000000000000000602082015250565b7f5061757361626c653a2070617573656400000000000000000000000000000000600082015250565b7f4552433732313a20617070726f76652063616c6c6572206973206e6f74206f7760008201527f6e6572206e6f7220617070726f76656420666f7220616c6c0000000000000000602082015250565b7f4552433732313a2062616c616e636520717565727920666f7220746865207a6560008201527f726f206164647265737300000000000000000000000000000000000000000000602082015250565b7f4552433732313a206f776e657220717565727920666f72206e6f6e657869737460008201527f656e7420746f6b656e0000000000000000000000000000000000000000000000602082015250565b7f45524337323155524953746f726167653a2055524920736574206f66206e6f6e60008201527f6578697374656e7420746f6b656e000000000000000000000000000000000000602082015250565b7f4552433732313a206d696e7420746f20746865207a65726f2061646472657373600082015250565b7f45524337323155524953746f726167653a2055524920717565727920666f722060008201527f6e6f6e6578697374656e7420746f6b656e000000000000000000000000000000602082015250565b7f4552433732313a20617070726f76656420717565727920666f72206e6f6e657860008201527f697374656e7420746f6b656e0000000000000000000000000000000000000000602082015250565b7f4f776e61626c653a2063616c6c6572206973206e6f7420746865206f776e6572600082015250565b7f4552433732314d657461646174613a2055524920717565727920666f72206e6f60008201527f6e6578697374656e7420746f6b656e0000000000000000000000000000000000602082015250565b7f4552433732313a20617070726f76616c20746f2063757272656e74206f776e6560008201527f7200000000000000000000000000000000000000000000000000000000000000602082015250565b50565b7f4552433732313a207472616e736665722063616c6c6572206973206e6f74206f60008201527f776e6572206e6f7220617070726f766564000000000000000000000000000000602082015250565b613c2c81613426565b8114613c3757600080fd5b50565b613c4381613438565b8114613c4e57600080fd5b50565b613c5a81613444565b8114613c6557600080fd5b50565b613c7181613490565b8114613c7c57600080fd5b5056fea2646970667358221220f7fca9f6764af0c081c8ae2da00c5dad84d066460f4f0862c4a8b1465e111ad264736f6c63430008040033697066733a2f2f516d595a4b706f73646b795344356d75575a6e487a4371634c6d3656584d32554b67367635514c4a617a31325a652f",
  "linkReferences": {},
  "deployedLinkReferences": {}
}